{
  "contractName": "Voting",
  "abi": [
    {
      "inputs": [],
      "stateMutability": "nonpayable",
      "type": "constructor"
    },
    {
      "inputs": [
        {
          "internalType": "uint256",
          "name": "",
          "type": "uint256"
        }
      ],
      "name": "candidates",
      "outputs": [
        {
          "internalType": "uint256",
          "name": "id",
          "type": "uint256"
        },
        {
          "internalType": "string",
          "name": "name",
          "type": "string"
        },
        {
          "internalType": "uint256",
          "name": "voteCount",
          "type": "uint256"
        }
      ],
      "stateMutability": "view",
      "type": "function",
      "constant": true
    },
    {
      "inputs": [],
      "name": "candidatesCount",
      "outputs": [
        {
          "internalType": "uint256",
          "name": "",
          "type": "uint256"
        }
      ],
      "stateMutability": "view",
      "type": "function",
      "constant": true
    },
    {
      "inputs": [],
      "name": "owner",
      "outputs": [
        {
          "internalType": "address",
          "name": "",
          "type": "address"
        }
      ],
      "stateMutability": "view",
      "type": "function",
      "constant": true
    },
    {
      "inputs": [],
      "name": "votesCount",
      "outputs": [
        {
          "internalType": "uint256",
          "name": "",
          "type": "uint256"
        }
      ],
      "stateMutability": "view",
      "type": "function",
      "constant": true
    },
    {
      "inputs": [],
      "name": "getOwner",
      "outputs": [
        {
          "internalType": "address",
          "name": "",
          "type": "address"
        }
      ],
      "stateMutability": "view",
      "type": "function",
      "constant": true
    },
    {
      "inputs": [],
      "name": "getCandidatesCount",
      "outputs": [
        {
          "internalType": "uint256",
          "name": "",
          "type": "uint256"
        }
      ],
      "stateMutability": "view",
      "type": "function",
      "constant": true
    },
    {
      "inputs": [],
      "name": "getVotesCount",
      "outputs": [
        {
          "internalType": "uint256",
          "name": "",
          "type": "uint256"
        }
      ],
      "stateMutability": "view",
      "type": "function",
      "constant": true
    },
    {
      "inputs": [],
      "name": "getElectionsEnd",
      "outputs": [
        {
          "internalType": "bool",
          "name": "",
          "type": "bool"
        }
      ],
      "stateMutability": "view",
      "type": "function",
      "constant": true
    },
    {
      "inputs": [
        {
          "internalType": "string",
          "name": "_name",
          "type": "string"
        }
      ],
      "name": "addCandidate",
      "outputs": [],
      "stateMutability": "nonpayable",
      "type": "function"
    },
    {
      "inputs": [
        {
          "internalType": "uint256",
          "name": "_id",
          "type": "uint256"
        }
      ],
      "name": "getCandidate",
      "outputs": [
        {
          "internalType": "string",
          "name": "",
          "type": "string"
        }
      ],
      "stateMutability": "view",
      "type": "function",
      "constant": true
    },
    {
      "inputs": [
        {
          "internalType": "uint256",
          "name": "_candidateId",
          "type": "uint256"
        }
      ],
      "name": "vote",
      "outputs": [],
      "stateMutability": "nonpayable",
      "type": "function"
    },
    {
      "inputs": [],
      "name": "hasVoted",
      "outputs": [
        {
          "internalType": "bool",
          "name": "",
          "type": "bool"
        }
      ],
      "stateMutability": "view",
      "type": "function",
      "constant": true
    },
    {
      "inputs": [],
      "name": "startSecondTour",
      "outputs": [],
      "stateMutability": "nonpayable",
      "type": "function"
    },
    {
      "inputs": [],
      "name": "endElections",
      "outputs": [],
      "stateMutability": "nonpayable",
      "type": "function"
    },
    {
      "inputs": [],
      "name": "getWinner",
      "outputs": [
        {
          "internalType": "string",
          "name": "",
          "type": "string"
        }
      ],
      "stateMutability": "view",
      "type": "function",
      "constant": true
    },
    {
      "inputs": [
        {
          "internalType": "uint256",
          "name": "_candidateId",
          "type": "uint256"
        }
      ],
      "name": "getPercentage",
      "outputs": [
        {
          "internalType": "uint256",
          "name": "",
          "type": "uint256"
        }
      ],
      "stateMutability": "view",
      "type": "function",
      "constant": true
    }
  ],
  "bytecode": "0x608060405260006005556000600660006101000a81548160ff0219169083151502179055503480156200003157600080fd5b50336000806101000a81548173ffffffffffffffffffffffffffffffffffffffff021916908373ffffffffffffffffffffffffffffffffffffffff160217905550620000b86040518060400160405280600981526020017f4a6f686e205769636b00000000000000000000000000000000000000000000008152506200014a60201b60201c565b620000fe6040518060400160405280600381526020017f4e656f00000000000000000000000000000000000000000000000000000000008152506200014a60201b60201c565b620001446040518060400160405280600c81526020017f4b65616e752052656576657300000000000000000000000000000000000000008152506200014a60201b60201c565b620003c3565b60008054906101000a900473ffffffffffffffffffffffffffffffffffffffff1673ffffffffffffffffffffffffffffffffffffffff163373ffffffffffffffffffffffffffffffffffffffff1614620001a357600080fd5b60026000815480929190620001b89062000312565b91905055506040518060600160405280600254815260200182815260200160008152506001600060025481526020019081526020016000206000820151816000015560208201518160010190805190602001906200021892919062000229565b506040820151816002015590505050565b82805462000237906200038e565b90600052602060002090601f0160209004810192826200025b5760008555620002a7565b82601f106200027657805160ff1916838001178555620002a7565b82800160010185558215620002a7579182015b82811115620002a657825182559160200191906001019062000289565b5b509050620002b69190620002ba565b5090565b5b80821115620002d5576000816000905550600101620002bb565b5090565b7f4e487b7100000000000000000000000000000000000000000000000000000000600052601160045260246000fd5b6000819050919050565b60006200031f8262000308565b91507fffffffffffffffffffffffffffffffffffffffffffffffffffffffffffffffff8203620003545762000353620002d9565b5b600182019050919050565b7f4e487b7100000000000000000000000000000000000000000000000000000000600052602260045260246000fd5b60006002820490506001821680620003a757607f821691505b602082108103620003bd57620003bc6200035f565b5b50919050565b6113af80620003d36000396000f3fe608060405234801561001057600080fd5b50600436106101005760003560e01c806364821338116100975780638e7ea5b2116100665780638e7ea5b21461027b578063b4f77e2514610299578063bb9aa28f146102a3578063e161c3bf146102c157610100565b806364821338146102035780638778b27d14610221578063893d20e81461023f5780638da5cb5b1461025d57610100565b806335253895116100d3578063352538951461018f57806335b8e820146101ad578063462e91ec146101dd5780635905491c146101f957610100565b80630121b93f146101055780631b605b86146101215780632d35a8a21461013f5780633477ee2e1461015d575b600080fd5b61011f600480360381019061011a9190610e01565b6102f1565b005b610129610465565b6040516101369190610e3d565b60405180910390f35b61014761046f565b6040516101549190610e3d565b60405180910390f35b61017760048036038101906101729190610e01565b610475565b60405161018693929190610ef1565b60405180910390f35b610197610527565b6040516101a49190610f4a565b60405180910390f35b6101c760048036038101906101c29190610e01565b61053e565b6040516101d49190610f65565b60405180910390f35b6101f760048036038101906101f291906110bc565b6105e6565b005b6102016106c0565b005b61020b610744565b6040516102189190610f4a565b60405180910390f35b610229610798565b6040516102369190610e3d565b60405180910390f35b61024761079e565b6040516102549190611146565b60405180910390f35b6102656107c7565b6040516102729190611146565b60405180910390f35b6102836107eb565b6040516102909190610f65565b60405180910390f35b6102a161090e565b005b6102ab610c77565b6040516102b89190610e3d565b60405180910390f35b6102db60048036038101906102d69190610e01565b610c81565b6040516102e89190610e3d565b60405180910390f35b600360003373ffffffffffffffffffffffffffffffffffffffff1673ffffffffffffffffffffffffffffffffffffffff16815260200190815260200160002060009054906101000a900460ff161561034857600080fd5b60008111801561035a57506002548111155b61036357600080fd5b6004339080600181540180825580915050600190039060005260206000200160009091909190916101000a81548173ffffffffffffffffffffffffffffffffffffffff021916908373ffffffffffffffffffffffffffffffffffffffff1602179055506001600360003373ffffffffffffffffffffffffffffffffffffffff1673ffffffffffffffffffffffffffffffffffffffff16815260200190815260200160002060006101000a81548160ff02191690831515021790555060016000828152602001908152602001600020600201600081548092919061044590611190565b91905055506005600081548092919061045d90611190565b919050555050565b6000600554905090565b60025481565b600160205280600052604060002060009150905080600001549080600101805461049e90611207565b80601f01602080910402602001604051908101604052809291908181526020018280546104ca90611207565b80156105175780601f106104ec57610100808354040283529160200191610517565b820191906000526020600020905b8154815290600101906020018083116104fa57829003601f168201915b5050505050908060020154905083565b6000600660009054906101000a900460ff16905090565b606060016000838152602001908152602001600020600101805461056190611207565b80601f016020809104026020016040519081016040528092919081815260200182805461058d90611207565b80156105da5780601f106105af576101008083540402835291602001916105da565b820191906000526020600020905b8154815290600101906020018083116105bd57829003601f168201915b50505050509050919050565b60008054906101000a900473ffffffffffffffffffffffffffffffffffffffff1673ffffffffffffffffffffffffffffffffffffffff163373ffffffffffffffffffffffffffffffffffffffff161461063e57600080fd5b6002600081548092919061065190611190565b91905055506040518060600160405280600254815260200182815260200160008152506001600060025481526020019081526020016000206000820151816000015560208201518160010190805190602001906106af929190610cd4565b506040820151816002015590505050565b60008054906101000a900473ffffffffffffffffffffffffffffffffffffffff1673ffffffffffffffffffffffffffffffffffffffff163373ffffffffffffffffffffffffffffffffffffffff161461071857600080fd5b60006005541161072757600080fd5b6001600660006101000a81548160ff021916908315150217905550565b6000600360003373ffffffffffffffffffffffffffffffffffffffff1673ffffffffffffffffffffffffffffffffffffffff16815260200190815260200160002060009054906101000a900460ff16905090565b60055481565b60008060009054906101000a900473ffffffffffffffffffffffffffffffffffffffff16905090565b60008054906101000a900473ffffffffffffffffffffffffffffffffffffffff1681565b6060600660009054906101000a900460ff1661080657600080fd5b6000806000600190505b600254811161086757826001600083815260200190815260200160002060020154111561085457600160008281526020019081526020016000206002015492508091505b808061085f90611190565b915050610810565b5060016000828152602001908152602001600020600101805461088990611207565b80601f01602080910402602001604051908101604052809291908181526020018280546108b590611207565b80156109025780601f106108d757610100808354040283529160200191610902565b820191906000526020600020905b8154815290600101906020018083116108e557829003601f168201915b50505050509250505090565b60008054906101000a900473ffffffffffffffffffffffffffffffffffffffff1673ffffffffffffffffffffffffffffffffffffffff163373ffffffffffffffffffffffffffffffffffffffff161461096657600080fd5b60006005541161097557600080fd5b6007600190806001815401808255809150506001900390600052602060002001600090919091909150556000606490508060086000808152602001908152602001600020819055506000600190505b6002548111610a995760006109d882610c81565b905082811015610a26578092508160076000815481106109fb576109fa611238565b5b9060005260206000200181905550826008600080815260200190815260200160002081905550610a85565b828103610a845760078290806001815401808255809150506001900390600052602060002001600090919091909150556000600190508360086000838152602001908152602001600020819055508080610a7f90611190565b915050505b5b508080610a9190611190565b9150506109c4565b5060005b600780549050811015610b57576008600082815260200190815260200160002054600860008081526020019081526020016000205403610b44576001600060078381548110610aef57610aee611238565b5b90600052602060002001548152602001908152602001600020600080820160009055600182016000610b219190610d5a565b6002820160009055505060026000815480929190610b3e90611267565b91905055505b8080610b4f90611190565b915050610a9d565b5060005b600480549050811015610c585760006003600060048481548110610b8257610b81611238565b5b9060005260206000200160009054906101000a900473ffffffffffffffffffffffffffffffffffffffff1673ffffffffffffffffffffffffffffffffffffffff1673ffffffffffffffffffffffffffffffffffffffff16815260200190815260200160002060006101000a81548160ff0219169083151502179055506004805480610c1057610c0f611290565b5b6001900381819060005260206000200160006101000a81549073ffffffffffffffffffffffffffffffffffffffff021916905590558080610c5090611190565b915050610b5b565b506000600660006101000a81548160ff02191690831515021790555050565b6000600254905090565b60008082118015610c9457506002548211155b610c9d57600080fd5b60055460646001600085815260200190815260200160002060020154610cc391906112bf565b610ccd9190611348565b9050919050565b828054610ce090611207565b90600052602060002090601f016020900481019282610d025760008555610d49565b82601f10610d1b57805160ff1916838001178555610d49565b82800160010185558215610d49579182015b82811115610d48578251825591602001919060010190610d2d565b5b509050610d569190610d9a565b5090565b508054610d6690611207565b6000825580601f10610d785750610d97565b601f016020900490600052602060002090810190610d969190610d9a565b5b50565b5b80821115610db3576000816000905550600101610d9b565b5090565b6000604051905090565b600080fd5b600080fd5b6000819050919050565b610dde81610dcb565b8114610de957600080fd5b50565b600081359050610dfb81610dd5565b92915050565b600060208284031215610e1757610e16610dc1565b5b6000610e2584828501610dec565b91505092915050565b610e3781610dcb565b82525050565b6000602082019050610e526000830184610e2e565b92915050565b600081519050919050565b600082825260208201905092915050565b60005b83811015610e92578082015181840152602081019050610e77565b83811115610ea1576000848401525b50505050565b6000601f19601f8301169050919050565b6000610ec382610e58565b610ecd8185610e63565b9350610edd818560208601610e74565b610ee681610ea7565b840191505092915050565b6000606082019050610f066000830186610e2e565b8181036020830152610f188185610eb8565b9050610f276040830184610e2e565b949350505050565b60008115159050919050565b610f4481610f2f565b82525050565b6000602082019050610f5f6000830184610f3b565b92915050565b60006020820190508181036000830152610f7f8184610eb8565b905092915050565b600080fd5b600080fd5b7f4e487b7100000000000000000000000000000000000000000000000000000000600052604160045260246000fd5b610fc982610ea7565b810181811067ffffffffffffffff82111715610fe857610fe7610f91565b5b80604052505050565b6000610ffb610db7565b90506110078282610fc0565b919050565b600067ffffffffffffffff82111561102757611026610f91565b5b61103082610ea7565b9050602081019050919050565b82818337600083830152505050565b600061105f61105a8461100c565b610ff1565b90508281526020810184848401111561107b5761107a610f8c565b5b61108684828561103d565b509392505050565b600082601f8301126110a3576110a2610f87565b5b81356110b384826020860161104c565b91505092915050565b6000602082840312156110d2576110d1610dc1565b5b600082013567ffffffffffffffff8111156110f0576110ef610dc6565b5b6110fc8482850161108e565b91505092915050565b600073ffffffffffffffffffffffffffffffffffffffff82169050919050565b600061113082611105565b9050919050565b61114081611125565b82525050565b600060208201905061115b6000830184611137565b92915050565b7f4e487b7100000000000000000000000000000000000000000000000000000000600052601160045260246000fd5b600061119b82610dcb565b91507fffffffffffffffffffffffffffffffffffffffffffffffffffffffffffffffff82036111cd576111cc611161565b5b600182019050919050565b7f4e487b7100000000000000000000000000000000000000000000000000000000600052602260045260246000fd5b6000600282049050600182168061121f57607f821691505b602082108103611232576112316111d8565b5b50919050565b7f4e487b7100000000000000000000000000000000000000000000000000000000600052603260045260246000fd5b600061127282610dcb565b91506000820361128557611284611161565b5b600182039050919050565b7f4e487b7100000000000000000000000000000000000000000000000000000000600052603160045260246000fd5b60006112ca82610dcb565b91506112d583610dcb565b9250817fffffffffffffffffffffffffffffffffffffffffffffffffffffffffffffffff048311821515161561130e5761130d611161565b5b828202905092915050565b7f4e487b7100000000000000000000000000000000000000000000000000000000600052601260045260246000fd5b600061135382610dcb565b915061135e83610dcb565b92508261136e5761136d611319565b5b82820490509291505056fea2646970667358221220ececbbc3d12c67c0885ab87c367c1720596cc6a4d0e2b1a5cc5594cdeba6c78564736f6c634300080d0033",
  "immutableReferences": {},
  "source": "// SPDX-License-Identifier: UNLICENSED\npragma solidity 0.8.13;\n/**\n * @title \n * @dev    .\n */\ncontract Voting {\n    //    \n    struct Candidate {\n        uint id; // ID \n        string name; //  \n        uint voteCount; //    \n    }\n\n    address public owner; //  \n    mapping(uint => Candidate) public candidates; //   ID    \n    uint public candidatesCount; //   \n\n    mapping(address => bool) private voters; //   ,    \n    address[] private votersAddress;\n    uint public votesCount = 0; //    \n\n    bool electionsEnd = false; // , ,   \n\n    uint[] private minVotesId;\n    mapping (uint => uint) minPercentages;\n\n    //        \n    modifier restricted() {\n        require(msg.sender == owner);\n        _;\n    }\n\n    modifier anyVotes() {\n        require(votesCount > 0);\n        _;\n    }\n\n    /**\n     * @dev ,  .\n     */\n    constructor () {\n        owner = msg.sender;\n        addCandidate(\"John Wick\");\n        addCandidate(\"Neo\");\n        addCandidate(\"Keanu Reeves\");\n    }\n\n    /**\n     * @dev     .\n     * @return   .\n     */\n    function getOwner() public view returns (address) {\n        return owner;\n    }\n\n    /**\n     * @dev      .\n     * @return   .\n     */\n    function getCandidatesCount() public view returns (uint) {\n        return candidatesCount;\n    }\n\n    /**\n     * @dev       .\n     * @return    .\n     */\n    function getVotesCount() public view returns (uint) {\n        return votesCount;\n    }\n\n    /**\n     * @dev   ,   .\n     * @return  , ,   .\n     */\n    function getElectionsEnd() public view returns (bool) {\n        return electionsEnd;\n    }\n\n    /**\n     * @dev     .\n     * @param _name  .\n     */\n    function addCandidate (string memory _name) public restricted {\n        candidatesCount ++;\n        candidates[candidatesCount] = Candidate(candidatesCount, _name, 0);\n    }\n\n    /**\n    * @dev       ID.\n    * @param _id ID .\n    * @return  .\n    */\n    function getCandidate (uint _id) public view returns (string memory)\n    {\n        return candidates[_id].name;\n    }\n\n    /**\n     * @dev     .\n     * @param _candidateId ID ,   .\n     */\n    function vote (uint _candidateId) public {\n        require(!voters[msg.sender]);\n        require(_candidateId > 0 && _candidateId <= candidatesCount);\n        votersAddress.push(msg.sender);\n        voters[msg.sender] = true;\n        candidates[_candidateId].voteCount ++;\n        votesCount ++;\n    }\n\n    function hasVoted() public view returns (bool) {\n        return voters[msg.sender];\n    }\n\n    /**\n     * @dev     .\n     */\n    function startSecondTour() public restricted anyVotes {\n        minVotesId.push(1);\n        uint minPercentage = 100;\n        minPercentages[0] = minPercentage;\n        for (uint i = 1; i <= candidatesCount; i++)\n        {\n            uint percentage = getPercentage(i);\n            if (percentage < minPercentage)\n            {\n                minPercentage = percentage;\n                minVotesId[0] = i;\n                minPercentages[0] = minPercentage;\n            }\n            else if (percentage == minPercentage)\n            {\n                minVotesId.push(i);\n                uint j = 1;\n                minPercentages[j] = minPercentage;\n                j++;\n            }\n        }\n        for (uint i = 0; i < minVotesId.length; i++)\n        {\n            if (minPercentages[0] == minPercentages[i])\n            {\n                delete candidates[minVotesId[i]];\n                candidatesCount--;\n            }\n        }\n        for (uint i = 0; i < votersAddress.length; i++)\n        {\n            voters[votersAddress[i]] = false;\n            votersAddress.pop();\n        }\n        electionsEnd = false;\n    }\n\n    /**\n     * @dev    .\n     */\n    function endElections() public restricted anyVotes {\n        electionsEnd = true;\n    }\n\n    /**\n     * @dev     .\n     * @return   .\n     */\n    function getWinner() public view returns (string memory) {\n        require(electionsEnd);\n        uint maxVotes = 0;\n        uint winnerId = 0;\n        for (uint i = 1; i <= candidatesCount; i++) {\n            if (candidates[i].voteCount > maxVotes) {\n                maxVotes = candidates[i].voteCount;\n                winnerId = i;\n            }\n        }\n        return candidates[winnerId].name;\n    }\n\n    /**\n     * @dev       \n     * @param _candidateId ID \n     * @return    \n     */\n    function getPercentage(uint _candidateId) public view returns (uint) {\n        require(_candidateId > 0 && _candidateId <= candidatesCount);\n        return candidates[_candidateId].voteCount * 100 / votesCount;\n    }\n}",
  "sourcePath": "/Users/milord/Documents/STUDY/Elections/contracts/elections.sol",
  "compiler": {
    "name": "solc",
    "version": "0.8.13+commit.abaa5c0e.Emscripten.clang"
  },
  "schemaVersion": "3.4.16",
  "updatedAt": "2024-05-27T19:20:59.940Z",
  "networkType": "ethereum",
  "devdoc": {
    "details": "   .",
    "kind": "dev",
    "methods": {
      "addCandidate(string)": {
        "details": "    .",
        "params": {
          "_name": " ."
        }
      },
      "constructor": {
        "details": ",  ."
      },
      "endElections()": {
        "details": "   ."
      },
      "getCandidate(uint256)": {
        "details": "      ID.",
        "params": {
          "_id": "ID ."
        },
        "returns": {
          "_0": " ."
        }
      },
      "getCandidatesCount()": {
        "details": "     .",
        "returns": {
          "_0": "  ."
        }
      },
      "getElectionsEnd()": {
        "details": "  ,   .",
        "returns": {
          "_0": " , ,   ."
        }
      },
      "getOwner()": {
        "details": "    .",
        "returns": {
          "_0": "  ."
        }
      },
      "getPercentage(uint256)": {
        "details": "      ",
        "params": {
          "_candidateId": "ID "
        },
        "returns": {
          "_0": "   "
        }
      },
      "getVotesCount()": {
        "details": "      .",
        "returns": {
          "_0": "   ."
        }
      },
      "getWinner()": {
        "details": "    .",
        "returns": {
          "_0": "  ."
        }
      },
      "startSecondTour()": {
        "details": "    ."
      },
      "vote(uint256)": {
        "details": "    .",
        "params": {
          "_candidateId": "ID ,   ."
        }
      }
    },
    "title": "",
    "version": 1
  },
  "userdoc": {
    "kind": "user",
    "methods": {},
    "version": 1
  }
}