{
  "contractName": "Voting",
  "abi": [
    {
      "inputs": [],
      "stateMutability": "nonpayable",
      "type": "constructor"
    },
    {
      "inputs": [
        {
          "internalType": "uint256",
          "name": "",
          "type": "uint256"
        }
      ],
      "name": "candidates",
      "outputs": [
        {
          "internalType": "uint256",
          "name": "id",
          "type": "uint256"
        },
        {
          "internalType": "string",
          "name": "name",
          "type": "string"
        },
        {
          "internalType": "uint256",
          "name": "voteCount",
          "type": "uint256"
        }
      ],
      "stateMutability": "view",
      "type": "function",
      "constant": true
    },
    {
      "inputs": [],
      "name": "candidatesCount",
      "outputs": [
        {
          "internalType": "uint256",
          "name": "",
          "type": "uint256"
        }
      ],
      "stateMutability": "view",
      "type": "function",
      "constant": true
    },
    {
      "inputs": [],
      "name": "owner",
      "outputs": [
        {
          "internalType": "address",
          "name": "",
          "type": "address"
        }
      ],
      "stateMutability": "view",
      "type": "function",
      "constant": true
    },
    {
      "inputs": [],
      "name": "votesCount",
      "outputs": [
        {
          "internalType": "uint256",
          "name": "",
          "type": "uint256"
        }
      ],
      "stateMutability": "view",
      "type": "function",
      "constant": true
    },
    {
      "inputs": [],
      "name": "getOwner",
      "outputs": [
        {
          "internalType": "address",
          "name": "",
          "type": "address"
        }
      ],
      "stateMutability": "view",
      "type": "function",
      "constant": true
    },
    {
      "inputs": [],
      "name": "getCandidatesCount",
      "outputs": [
        {
          "internalType": "uint256",
          "name": "",
          "type": "uint256"
        }
      ],
      "stateMutability": "view",
      "type": "function",
      "constant": true
    },
    {
      "inputs": [],
      "name": "getVotesCount",
      "outputs": [
        {
          "internalType": "uint256",
          "name": "",
          "type": "uint256"
        }
      ],
      "stateMutability": "view",
      "type": "function",
      "constant": true
    },
    {
      "inputs": [],
      "name": "getElectionsEnd",
      "outputs": [
        {
          "internalType": "bool",
          "name": "",
          "type": "bool"
        }
      ],
      "stateMutability": "view",
      "type": "function",
      "constant": true
    },
    {
      "inputs": [
        {
          "internalType": "string",
          "name": "_name",
          "type": "string"
        }
      ],
      "name": "addCandidate",
      "outputs": [],
      "stateMutability": "nonpayable",
      "type": "function"
    },
    {
      "inputs": [
        {
          "internalType": "uint256",
          "name": "_id",
          "type": "uint256"
        }
      ],
      "name": "getCandidate",
      "outputs": [
        {
          "internalType": "string",
          "name": "",
          "type": "string"
        }
      ],
      "stateMutability": "view",
      "type": "function",
      "constant": true
    },
    {
      "inputs": [
        {
          "internalType": "uint256",
          "name": "_candidateId",
          "type": "uint256"
        }
      ],
      "name": "vote",
      "outputs": [],
      "stateMutability": "nonpayable",
      "type": "function"
    },
    {
      "inputs": [],
      "name": "startSecondTour",
      "outputs": [],
      "stateMutability": "nonpayable",
      "type": "function"
    },
    {
      "inputs": [],
      "name": "endElections",
      "outputs": [],
      "stateMutability": "nonpayable",
      "type": "function"
    },
    {
      "inputs": [],
      "name": "getWinner",
      "outputs": [
        {
          "internalType": "string",
          "name": "",
          "type": "string"
        }
      ],
      "stateMutability": "view",
      "type": "function",
      "constant": true
    },
    {
      "inputs": [
        {
          "internalType": "uint256",
          "name": "_candidateId",
          "type": "uint256"
        }
      ],
      "name": "getPercentage",
      "outputs": [
        {
          "internalType": "uint256",
          "name": "",
          "type": "uint256"
        }
      ],
      "stateMutability": "view",
      "type": "function",
      "constant": true
    }
  ],
  "bytecode": "0x608060405260006004556000600560006101000a81548160ff0219169083151502179055503480156200003157600080fd5b50336000806101000a81548173ffffffffffffffffffffffffffffffffffffffff021916908373ffffffffffffffffffffffffffffffffffffffff160217905550620000b86040518060400160405280600981526020017f4a6f686e205769636b00000000000000000000000000000000000000000000008152506200014a60201b60201c565b620000fe6040518060400160405280600381526020017f4e656f00000000000000000000000000000000000000000000000000000000008152506200014a60201b60201c565b620001446040518060400160405280600c81526020017f4b65616e752052656576657300000000000000000000000000000000000000008152506200014a60201b60201c565b620003c3565b60008054906101000a900473ffffffffffffffffffffffffffffffffffffffff1673ffffffffffffffffffffffffffffffffffffffff163373ffffffffffffffffffffffffffffffffffffffff1614620001a357600080fd5b60026000815480929190620001b89062000312565b91905055506040518060600160405280600254815260200182815260200160008152506001600060025481526020019081526020016000206000820151816000015560208201518160010190805190602001906200021892919062000229565b506040820151816002015590505050565b82805462000237906200038e565b90600052602060002090601f0160209004810192826200025b5760008555620002a7565b82601f106200027657805160ff1916838001178555620002a7565b82800160010185558215620002a7579182015b82811115620002a657825182559160200191906001019062000289565b5b509050620002b69190620002ba565b5090565b5b80821115620002d5576000816000905550600101620002bb565b5090565b7f4e487b7100000000000000000000000000000000000000000000000000000000600052601160045260246000fd5b6000819050919050565b60006200031f8262000308565b91507fffffffffffffffffffffffffffffffffffffffffffffffffffffffffffffffff8203620003545762000353620002d9565b5b600182019050919050565b7f4e487b7100000000000000000000000000000000000000000000000000000000600052602260045260246000fd5b60006002820490506001821680620003a757607f821691505b602082108103620003bd57620003bc6200035f565b5b50919050565b61100e80620003d36000396000f3fe608060405234801561001057600080fd5b50600436106100f55760003560e01c80635905491c116100975780638e7ea5b2116100665780638e7ea5b214610252578063b4f77e2514610270578063bb9aa28f1461027a578063e161c3bf14610298576100f5565b80635905491c146101ee5780638778b27d146101f8578063893d20e8146102165780638da5cb5b14610234576100f5565b80633477ee2e116100d35780633477ee2e14610152578063352538951461018457806335b8e820146101a2578063462e91ec146101d2576100f5565b80630121b93f146100fa5780631b605b86146101165780632d35a8a214610134575b600080fd5b610114600480360381019061010f9190610abe565b6102c8565b005b61011e6103d9565b60405161012b9190610afa565b60405180910390f35b61013c6103e3565b6040516101499190610afa565b60405180910390f35b61016c60048036038101906101679190610abe565b6103e9565b60405161017b93929190610bae565b60405180910390f35b61018c61049b565b6040516101999190610c07565b60405180910390f35b6101bc60048036038101906101b79190610abe565b6104b2565b6040516101c99190610c22565b60405180910390f35b6101ec60048036038101906101e79190610d79565b61055a565b005b6101f6610634565b005b6102006106b8565b60405161020d9190610afa565b60405180910390f35b61021e6106be565b60405161022b9190610e03565b60405180910390f35b61023c6106e7565b6040516102499190610e03565b60405180910390f35b61025a61070b565b6040516102679190610c22565b60405180910390f35b61027861082e565b005b610282610934565b60405161028f9190610afa565b60405180910390f35b6102b260048036038101906102ad9190610abe565b61093e565b6040516102bf9190610afa565b60405180910390f35b600360003373ffffffffffffffffffffffffffffffffffffffff1673ffffffffffffffffffffffffffffffffffffffff16815260200190815260200160002060009054906101000a900460ff161561031f57600080fd5b60008111801561033157506002548111155b61033a57600080fd5b6001600360003373ffffffffffffffffffffffffffffffffffffffff1673ffffffffffffffffffffffffffffffffffffffff16815260200190815260200160002060006101000a81548160ff0219169083151502179055506001600082815260200190815260200160002060020160008154809291906103b990610e4d565b9190505550600460008154809291906103d190610e4d565b919050555050565b6000600454905090565b60025481565b600160205280600052604060002060009150905080600001549080600101805461041290610ec4565b80601f016020809104026020016040519081016040528092919081815260200182805461043e90610ec4565b801561048b5780601f106104605761010080835404028352916020019161048b565b820191906000526020600020905b81548152906001019060200180831161046e57829003601f168201915b5050505050908060020154905083565b6000600560009054906101000a900460ff16905090565b60606001600083815260200190815260200160002060010180546104d590610ec4565b80601f016020809104026020016040519081016040528092919081815260200182805461050190610ec4565b801561054e5780601f106105235761010080835404028352916020019161054e565b820191906000526020600020905b81548152906001019060200180831161053157829003601f168201915b50505050509050919050565b60008054906101000a900473ffffffffffffffffffffffffffffffffffffffff1673ffffffffffffffffffffffffffffffffffffffff163373ffffffffffffffffffffffffffffffffffffffff16146105b257600080fd5b600260008154809291906105c590610e4d565b9190505550604051806060016040528060025481526020018281526020016000815250600160006002548152602001908152602001600020600082015181600001556020820151816001019080519060200190610623929190610991565b506040820151816002015590505050565b60008054906101000a900473ffffffffffffffffffffffffffffffffffffffff1673ffffffffffffffffffffffffffffffffffffffff163373ffffffffffffffffffffffffffffffffffffffff161461068c57600080fd5b60006004541161069b57600080fd5b6001600560006101000a81548160ff021916908315150217905550565b60045481565b60008060009054906101000a900473ffffffffffffffffffffffffffffffffffffffff16905090565b60008054906101000a900473ffffffffffffffffffffffffffffffffffffffff1681565b6060600560009054906101000a900460ff1661072657600080fd5b6000806000600190505b600254811161078757826001600083815260200190815260200160002060020154111561077457600160008281526020019081526020016000206002015492508091505b808061077f90610e4d565b915050610730565b506001600082815260200190815260200160002060010180546107a990610ec4565b80601f01602080910402602001604051908101604052809291908181526020018280546107d590610ec4565b80156108225780601f106107f757610100808354040283529160200191610822565b820191906000526020600020905b81548152906001019060200180831161080557829003601f168201915b50505050509250505090565b60008054906101000a900473ffffffffffffffffffffffffffffffffffffffff1673ffffffffffffffffffffffffffffffffffffffff163373ffffffffffffffffffffffffffffffffffffffff161461088657600080fd5b60006004541161089557600080fd5b6000600190506000606490506000600190505b60025481116108e15760006108bc8261093e565b9050828110156108cd578092508193505b5080806108d990610e4d565b9150506108a8565b506001600083815260200190815260200160002060008082016000905560018201600061090e9190610a17565b600282016000905550506002600081548092919061092b90610ef5565b91905055505050565b6000600254905090565b6000808211801561095157506002548211155b61095a57600080fd5b600454606460016000858152602001908152602001600020600201546109809190610f1e565b61098a9190610fa7565b9050919050565b82805461099d90610ec4565b90600052602060002090601f0160209004810192826109bf5760008555610a06565b82601f106109d857805160ff1916838001178555610a06565b82800160010185558215610a06579182015b82811115610a055782518255916020019190600101906109ea565b5b509050610a139190610a57565b5090565b508054610a2390610ec4565b6000825580601f10610a355750610a54565b601f016020900490600052602060002090810190610a539190610a57565b5b50565b5b80821115610a70576000816000905550600101610a58565b5090565b6000604051905090565b600080fd5b600080fd5b6000819050919050565b610a9b81610a88565b8114610aa657600080fd5b50565b600081359050610ab881610a92565b92915050565b600060208284031215610ad457610ad3610a7e565b5b6000610ae284828501610aa9565b91505092915050565b610af481610a88565b82525050565b6000602082019050610b0f6000830184610aeb565b92915050565b600081519050919050565b600082825260208201905092915050565b60005b83811015610b4f578082015181840152602081019050610b34565b83811115610b5e576000848401525b50505050565b6000601f19601f8301169050919050565b6000610b8082610b15565b610b8a8185610b20565b9350610b9a818560208601610b31565b610ba381610b64565b840191505092915050565b6000606082019050610bc36000830186610aeb565b8181036020830152610bd58185610b75565b9050610be46040830184610aeb565b949350505050565b60008115159050919050565b610c0181610bec565b82525050565b6000602082019050610c1c6000830184610bf8565b92915050565b60006020820190508181036000830152610c3c8184610b75565b905092915050565b600080fd5b600080fd5b7f4e487b7100000000000000000000000000000000000000000000000000000000600052604160045260246000fd5b610c8682610b64565b810181811067ffffffffffffffff82111715610ca557610ca4610c4e565b5b80604052505050565b6000610cb8610a74565b9050610cc48282610c7d565b919050565b600067ffffffffffffffff821115610ce457610ce3610c4e565b5b610ced82610b64565b9050602081019050919050565b82818337600083830152505050565b6000610d1c610d1784610cc9565b610cae565b905082815260208101848484011115610d3857610d37610c49565b5b610d43848285610cfa565b509392505050565b600082601f830112610d6057610d5f610c44565b5b8135610d70848260208601610d09565b91505092915050565b600060208284031215610d8f57610d8e610a7e565b5b600082013567ffffffffffffffff811115610dad57610dac610a83565b5b610db984828501610d4b565b91505092915050565b600073ffffffffffffffffffffffffffffffffffffffff82169050919050565b6000610ded82610dc2565b9050919050565b610dfd81610de2565b82525050565b6000602082019050610e186000830184610df4565b92915050565b7f4e487b7100000000000000000000000000000000000000000000000000000000600052601160045260246000fd5b6000610e5882610a88565b91507fffffffffffffffffffffffffffffffffffffffffffffffffffffffffffffffff8203610e8a57610e89610e1e565b5b600182019050919050565b7f4e487b7100000000000000000000000000000000000000000000000000000000600052602260045260246000fd5b60006002820490506001821680610edc57607f821691505b602082108103610eef57610eee610e95565b5b50919050565b6000610f0082610a88565b915060008203610f1357610f12610e1e565b5b600182039050919050565b6000610f2982610a88565b9150610f3483610a88565b9250817fffffffffffffffffffffffffffffffffffffffffffffffffffffffffffffffff0483118215151615610f6d57610f6c610e1e565b5b828202905092915050565b7f4e487b7100000000000000000000000000000000000000000000000000000000600052601260045260246000fd5b6000610fb282610a88565b9150610fbd83610a88565b925082610fcd57610fcc610f78565b5b82820490509291505056fea26469706673582212209c46b8da4fad54e49b03f28990b90e583ff3a607c64b3ec834403ebbf8dbea4e64736f6c634300080d0033",
  "immutableReferences": {},
  "source": "// SPDX-License-Identifier: UNLICENSED\npragma solidity 0.8.13;\n/**\n * @title \n * @dev    .\n */\ncontract Voting {\n    //    \n    struct Candidate {\n        uint id; // ID \n        string name; //  \n        uint voteCount; //    \n    }\n\n    address public owner; //  \n    mapping(uint => Candidate) public candidates; //   ID    \n    uint public candidatesCount; //   \n\n    mapping(address => bool) private voters; //   ,    \n    uint public votesCount = 0; //    \n\n    bool electionsEnd = false; // , ,   \n\n    //        \n    modifier restricted() {\n        require(msg.sender == owner);\n        _;\n    }\n\n    modifier anyVotes() {\n        require(votesCount > 0);\n        _;\n    }\n\n    /**\n     * @dev ,  .\n     */\n    constructor () {\n        owner = msg.sender;\n        addCandidate(\"John Wick\");\n        addCandidate(\"Neo\");\n        addCandidate(\"Keanu Reeves\");\n    }\n\n    /**\n     * @dev     .\n     * @return   .\n     */\n    function getOwner() public view returns (address) {\n        return owner;\n    }\n\n    /**\n     * @dev      .\n     * @return   .\n     */\n    function getCandidatesCount() public view returns (uint) {\n        return candidatesCount;\n    }\n\n    /**\n     * @dev       .\n     * @return    .\n     */\n    function getVotesCount() public view returns (uint) {\n        return votesCount;\n    }\n\n    /**\n     * @dev   ,   .\n     * @return  , ,   .\n     */\n    function getElectionsEnd() public view returns (bool) {\n        return electionsEnd;\n    }\n\n    /**\n     * @dev     .\n     * @param _name  .\n     */\n    function addCandidate (string memory _name) public restricted {\n        candidatesCount ++;\n        candidates[candidatesCount] = Candidate(candidatesCount, _name, 0);\n    }\n\n    /**\n    * @dev       ID.\n    * @param _id ID .\n    * @return  .\n    */\n    function getCandidate (uint _id) public view returns (string memory)\n    {\n        return candidates[_id].name;\n    }\n\n    /**\n     * @dev     .\n     * @param _candidateId ID ,   .\n     */\n    function vote (uint _candidateId) public {\n        require(!voters[msg.sender]);\n        require(_candidateId > 0 && _candidateId <= candidatesCount);\n        voters[msg.sender] = true;\n        candidates[_candidateId].voteCount ++;\n        votesCount ++;\n    }\n\n    /**\n     * @dev     .\n     */\n    function startSecondTour() public restricted anyVotes {\n        uint minVotesId = 1;\n        uint minPercentage = 100;\n        for (uint i = 1; i <= candidatesCount; i++)\n        {\n            uint percentage = getPercentage(i);\n            if (percentage < minPercentage)\n            {\n                minPercentage = percentage;\n                minVotesId = i;\n            }\n        }\n        delete candidates[minVotesId];\n        candidatesCount--;\n    }\n\n    /**\n     * @dev    .\n     */\n    function endElections() public restricted anyVotes {\n        electionsEnd = true;\n    }\n\n    /**\n     * @dev     .\n     * @return   .\n     */\n    function getWinner() public view returns (string memory) {\n        require(electionsEnd);\n        uint maxVotes = 0;\n        uint winnerId = 0;\n        for (uint i = 1; i <= candidatesCount; i++) {\n            if (candidates[i].voteCount > maxVotes) {\n                maxVotes = candidates[i].voteCount;\n                winnerId = i;\n            }\n        }\n        return candidates[winnerId].name;\n    }\n\n    /**\n     * @dev       \n     * @param _candidateId ID \n     * @return    \n     */\n    function getPercentage(uint _candidateId) public view returns (uint) {\n        require(_candidateId > 0 && _candidateId <= candidatesCount);\n        return candidates[_candidateId].voteCount * 100 / votesCount;\n    }\n}",
  "sourcePath": "/Users/milord/WebstormProjects/Elections/contracts/elections.sol",
  "compiler": {
    "name": "solc",
    "version": "0.8.13+commit.abaa5c0e.Emscripten.clang"
  },
  "schemaVersion": "3.4.16",
  "updatedAt": "2024-05-19T15:52:10.091Z",
  "networkType": "ethereum",
  "devdoc": {
    "details": "   .",
    "kind": "dev",
    "methods": {
      "addCandidate(string)": {
        "details": "    .",
        "params": {
          "_name": " ."
        }
      },
      "constructor": {
        "details": ",  ."
      },
      "endElections()": {
        "details": "   ."
      },
      "getCandidate(uint256)": {
        "details": "      ID.",
        "params": {
          "_id": "ID ."
        },
        "returns": {
          "_0": " ."
        }
      },
      "getCandidatesCount()": {
        "details": "     .",
        "returns": {
          "_0": "  ."
        }
      },
      "getElectionsEnd()": {
        "details": "  ,   .",
        "returns": {
          "_0": " , ,   ."
        }
      },
      "getOwner()": {
        "details": "    .",
        "returns": {
          "_0": "  ."
        }
      },
      "getPercentage(uint256)": {
        "details": "      ",
        "params": {
          "_candidateId": "ID "
        },
        "returns": {
          "_0": "   "
        }
      },
      "getVotesCount()": {
        "details": "      .",
        "returns": {
          "_0": "   ."
        }
      },
      "getWinner()": {
        "details": "    .",
        "returns": {
          "_0": "  ."
        }
      },
      "startSecondTour()": {
        "details": "    ."
      },
      "vote(uint256)": {
        "details": "    .",
        "params": {
          "_candidateId": "ID ,   ."
        }
      }
    },
    "title": "",
    "version": 1
  },
  "userdoc": {
    "kind": "user",
    "methods": {},
    "version": 1
  }
}