{
  "contractName": "Voting",
  "abi": [
    {
      "inputs": [],
      "stateMutability": "nonpayable",
      "type": "constructor"
    },
    {
      "inputs": [
        {
          "internalType": "uint256",
          "name": "",
          "type": "uint256"
        }
      ],
      "name": "candidates",
      "outputs": [
        {
          "internalType": "uint256",
          "name": "id",
          "type": "uint256"
        },
        {
          "internalType": "string",
          "name": "name",
          "type": "string"
        },
        {
          "internalType": "uint256",
          "name": "voteCount",
          "type": "uint256"
        }
      ],
      "stateMutability": "view",
      "type": "function"
    },
    {
      "inputs": [],
      "name": "candidatesCount",
      "outputs": [
        {
          "internalType": "uint256",
          "name": "",
          "type": "uint256"
        }
      ],
      "stateMutability": "view",
      "type": "function"
    },
    {
      "inputs": [],
      "name": "owner",
      "outputs": [
        {
          "internalType": "address",
          "name": "",
          "type": "address"
        }
      ],
      "stateMutability": "view",
      "type": "function"
    },
    {
      "inputs": [],
      "name": "votesCount",
      "outputs": [
        {
          "internalType": "uint256",
          "name": "",
          "type": "uint256"
        }
      ],
      "stateMutability": "view",
      "type": "function"
    },
    {
      "inputs": [],
      "name": "getOwner",
      "outputs": [
        {
          "internalType": "address",
          "name": "",
          "type": "address"
        }
      ],
      "stateMutability": "view",
      "type": "function"
    },
    {
      "inputs": [],
      "name": "getCandidatesCount",
      "outputs": [
        {
          "internalType": "uint256",
          "name": "",
          "type": "uint256"
        }
      ],
      "stateMutability": "view",
      "type": "function"
    },
    {
      "inputs": [],
      "name": "getVotesCount",
      "outputs": [
        {
          "internalType": "uint256",
          "name": "",
          "type": "uint256"
        }
      ],
      "stateMutability": "view",
      "type": "function"
    },
    {
      "inputs": [],
      "name": "getElectionsEnd",
      "outputs": [
        {
          "internalType": "bool",
          "name": "",
          "type": "bool"
        }
      ],
      "stateMutability": "view",
      "type": "function"
    },
    {
      "inputs": [
        {
          "internalType": "string",
          "name": "_name",
          "type": "string"
        }
      ],
      "name": "addCandidate",
      "outputs": [],
      "stateMutability": "nonpayable",
      "type": "function"
    },
    {
      "inputs": [
        {
          "internalType": "uint256",
          "name": "_id",
          "type": "uint256"
        }
      ],
      "name": "getCandidate",
      "outputs": [
        {
          "internalType": "string",
          "name": "",
          "type": "string"
        }
      ],
      "stateMutability": "view",
      "type": "function"
    },
    {
      "inputs": [
        {
          "internalType": "uint256",
          "name": "_candidateId",
          "type": "uint256"
        }
      ],
      "name": "vote",
      "outputs": [],
      "stateMutability": "nonpayable",
      "type": "function"
    },
    {
      "inputs": [],
      "name": "hasVoted",
      "outputs": [
        {
          "internalType": "bool",
          "name": "",
          "type": "bool"
        }
      ],
      "stateMutability": "view",
      "type": "function"
    },
    {
      "inputs": [],
      "name": "startSecondTour",
      "outputs": [],
      "stateMutability": "nonpayable",
      "type": "function"
    },
    {
      "inputs": [],
      "name": "endElections",
      "outputs": [],
      "stateMutability": "nonpayable",
      "type": "function"
    },
    {
      "inputs": [],
      "name": "getWinner",
      "outputs": [
        {
          "internalType": "string",
          "name": "",
          "type": "string"
        }
      ],
      "stateMutability": "view",
      "type": "function"
    },
    {
      "inputs": [
        {
          "internalType": "uint256",
          "name": "_candidateId",
          "type": "uint256"
        }
      ],
      "name": "getPercentage",
      "outputs": [
        {
          "internalType": "uint256",
          "name": "",
          "type": "uint256"
        }
      ],
      "stateMutability": "view",
      "type": "function"
    }
  ],
  "bytecode": "0x608060405260006004556000600560006101000a81548160ff0219169083151502179055503480156200003157600080fd5b50336000806101000a81548173ffffffffffffffffffffffffffffffffffffffff021916908373ffffffffffffffffffffffffffffffffffffffff160217905550620000b86040518060400160405280600981526020017f4a6f686e205769636b00000000000000000000000000000000000000000000008152506200014a60201b60201c565b620000fe6040518060400160405280600381526020017f4e656f00000000000000000000000000000000000000000000000000000000008152506200014a60201b60201c565b620001446040518060400160405280600c81526020017f4b65616e752052656576657300000000000000000000000000000000000000008152506200014a60201b60201c565b620003c3565b60008054906101000a900473ffffffffffffffffffffffffffffffffffffffff1673ffffffffffffffffffffffffffffffffffffffff163373ffffffffffffffffffffffffffffffffffffffff1614620001a357600080fd5b60026000815480929190620001b89062000312565b91905055506040518060600160405280600254815260200182815260200160008152506001600060025481526020019081526020016000206000820151816000015560208201518160010190805190602001906200021892919062000229565b506040820151816002015590505050565b82805462000237906200038e565b90600052602060002090601f0160209004810192826200025b5760008555620002a7565b82601f106200027657805160ff1916838001178555620002a7565b82800160010185558215620002a7579182015b82811115620002a657825182559160200191906001019062000289565b5b509050620002b69190620002ba565b5090565b5b80821115620002d5576000816000905550600101620002bb565b5090565b7f4e487b7100000000000000000000000000000000000000000000000000000000600052601160045260246000fd5b6000819050919050565b60006200031f8262000308565b91507fffffffffffffffffffffffffffffffffffffffffffffffffffffffffffffffff8203620003545762000353620002d9565b5b600182019050919050565b7f4e487b7100000000000000000000000000000000000000000000000000000000600052602260045260246000fd5b60006002820490506001821680620003a757607f821691505b602082108103620003bd57620003bc6200035f565b5b50919050565b61108b80620003d36000396000f3fe608060405234801561001057600080fd5b50600436106101005760003560e01c806364821338116100975780638e7ea5b2116100665780638e7ea5b21461027b578063b4f77e2514610299578063bb9aa28f146102a3578063e161c3bf146102c157610100565b806364821338146102035780638778b27d14610221578063893d20e81461023f5780638da5cb5b1461025d57610100565b806335253895116100d3578063352538951461018f57806335b8e820146101ad578063462e91ec146101dd5780635905491c146101f957610100565b80630121b93f146101055780631b605b86146101215780632d35a8a21461013f5780633477ee2e1461015d575b600080fd5b61011f600480360381019061011a9190610b3b565b6102f1565b005b610129610402565b6040516101369190610b77565b60405180910390f35b61014761040c565b6040516101549190610b77565b60405180910390f35b61017760048036038101906101729190610b3b565b610412565b60405161018693929190610c2b565b60405180910390f35b6101976104c4565b6040516101a49190610c84565b60405180910390f35b6101c760048036038101906101c29190610b3b565b6104db565b6040516101d49190610c9f565b60405180910390f35b6101f760048036038101906101f29190610df6565b610583565b005b61020161065d565b005b61020b6106e1565b6040516102189190610c84565b60405180910390f35b610229610735565b6040516102369190610b77565b60405180910390f35b61024761073b565b6040516102549190610e80565b60405180910390f35b610265610764565b6040516102729190610e80565b60405180910390f35b610283610788565b6040516102909190610c9f565b60405180910390f35b6102a16108ab565b005b6102ab6109b1565b6040516102b89190610b77565b60405180910390f35b6102db60048036038101906102d69190610b3b565b6109bb565b6040516102e89190610b77565b60405180910390f35b600360003373ffffffffffffffffffffffffffffffffffffffff1673ffffffffffffffffffffffffffffffffffffffff16815260200190815260200160002060009054906101000a900460ff161561034857600080fd5b60008111801561035a57506002548111155b61036357600080fd5b6001600360003373ffffffffffffffffffffffffffffffffffffffff1673ffffffffffffffffffffffffffffffffffffffff16815260200190815260200160002060006101000a81548160ff0219169083151502179055506001600082815260200190815260200160002060020160008154809291906103e290610eca565b9190505550600460008154809291906103fa90610eca565b919050555050565b6000600454905090565b60025481565b600160205280600052604060002060009150905080600001549080600101805461043b90610f41565b80601f016020809104026020016040519081016040528092919081815260200182805461046790610f41565b80156104b45780601f10610489576101008083540402835291602001916104b4565b820191906000526020600020905b81548152906001019060200180831161049757829003601f168201915b5050505050908060020154905083565b6000600560009054906101000a900460ff16905090565b60606001600083815260200190815260200160002060010180546104fe90610f41565b80601f016020809104026020016040519081016040528092919081815260200182805461052a90610f41565b80156105775780601f1061054c57610100808354040283529160200191610577565b820191906000526020600020905b81548152906001019060200180831161055a57829003601f168201915b50505050509050919050565b60008054906101000a900473ffffffffffffffffffffffffffffffffffffffff1673ffffffffffffffffffffffffffffffffffffffff163373ffffffffffffffffffffffffffffffffffffffff16146105db57600080fd5b600260008154809291906105ee90610eca565b919050555060405180606001604052806002548152602001828152602001600081525060016000600254815260200190815260200160002060008201518160000155602082015181600101908051906020019061064c929190610a0e565b506040820151816002015590505050565b60008054906101000a900473ffffffffffffffffffffffffffffffffffffffff1673ffffffffffffffffffffffffffffffffffffffff163373ffffffffffffffffffffffffffffffffffffffff16146106b557600080fd5b6000600454116106c457600080fd5b6001600560006101000a81548160ff021916908315150217905550565b6000600360003373ffffffffffffffffffffffffffffffffffffffff1673ffffffffffffffffffffffffffffffffffffffff16815260200190815260200160002060009054906101000a900460ff16905090565b60045481565b60008060009054906101000a900473ffffffffffffffffffffffffffffffffffffffff16905090565b60008054906101000a900473ffffffffffffffffffffffffffffffffffffffff1681565b6060600560009054906101000a900460ff166107a357600080fd5b6000806000600190505b60025481116108045782600160008381526020019081526020016000206002015411156107f157600160008281526020019081526020016000206002015492508091505b80806107fc90610eca565b9150506107ad565b5060016000828152602001908152602001600020600101805461082690610f41565b80601f016020809104026020016040519081016040528092919081815260200182805461085290610f41565b801561089f5780601f106108745761010080835404028352916020019161089f565b820191906000526020600020905b81548152906001019060200180831161088257829003601f168201915b50505050509250505090565b60008054906101000a900473ffffffffffffffffffffffffffffffffffffffff1673ffffffffffffffffffffffffffffffffffffffff163373ffffffffffffffffffffffffffffffffffffffff161461090357600080fd5b60006004541161091257600080fd5b6000600190506000606490506000600190505b600254811161095e576000610939826109bb565b90508281101561094a578092508193505b50808061095690610eca565b915050610925565b506001600083815260200190815260200160002060008082016000905560018201600061098b9190610a94565b60028201600090555050600260008154809291906109a890610f72565b91905055505050565b6000600254905090565b600080821180156109ce57506002548211155b6109d757600080fd5b600454606460016000858152602001908152602001600020600201546109fd9190610f9b565b610a079190611024565b9050919050565b828054610a1a90610f41565b90600052602060002090601f016020900481019282610a3c5760008555610a83565b82601f10610a5557805160ff1916838001178555610a83565b82800160010185558215610a83579182015b82811115610a82578251825591602001919060010190610a67565b5b509050610a909190610ad4565b5090565b508054610aa090610f41565b6000825580601f10610ab25750610ad1565b601f016020900490600052602060002090810190610ad09190610ad4565b5b50565b5b80821115610aed576000816000905550600101610ad5565b5090565b6000604051905090565b600080fd5b600080fd5b6000819050919050565b610b1881610b05565b8114610b2357600080fd5b50565b600081359050610b3581610b0f565b92915050565b600060208284031215610b5157610b50610afb565b5b6000610b5f84828501610b26565b91505092915050565b610b7181610b05565b82525050565b6000602082019050610b8c6000830184610b68565b92915050565b600081519050919050565b600082825260208201905092915050565b60005b83811015610bcc578082015181840152602081019050610bb1565b83811115610bdb576000848401525b50505050565b6000601f19601f8301169050919050565b6000610bfd82610b92565b610c078185610b9d565b9350610c17818560208601610bae565b610c2081610be1565b840191505092915050565b6000606082019050610c406000830186610b68565b8181036020830152610c528185610bf2565b9050610c616040830184610b68565b949350505050565b60008115159050919050565b610c7e81610c69565b82525050565b6000602082019050610c996000830184610c75565b92915050565b60006020820190508181036000830152610cb98184610bf2565b905092915050565b600080fd5b600080fd5b7f4e487b7100000000000000000000000000000000000000000000000000000000600052604160045260246000fd5b610d0382610be1565b810181811067ffffffffffffffff82111715610d2257610d21610ccb565b5b80604052505050565b6000610d35610af1565b9050610d418282610cfa565b919050565b600067ffffffffffffffff821115610d6157610d60610ccb565b5b610d6a82610be1565b9050602081019050919050565b82818337600083830152505050565b6000610d99610d9484610d46565b610d2b565b905082815260208101848484011115610db557610db4610cc6565b5b610dc0848285610d77565b509392505050565b600082601f830112610ddd57610ddc610cc1565b5b8135610ded848260208601610d86565b91505092915050565b600060208284031215610e0c57610e0b610afb565b5b600082013567ffffffffffffffff811115610e2a57610e29610b00565b5b610e3684828501610dc8565b91505092915050565b600073ffffffffffffffffffffffffffffffffffffffff82169050919050565b6000610e6a82610e3f565b9050919050565b610e7a81610e5f565b82525050565b6000602082019050610e956000830184610e71565b92915050565b7f4e487b7100000000000000000000000000000000000000000000000000000000600052601160045260246000fd5b6000610ed582610b05565b91507fffffffffffffffffffffffffffffffffffffffffffffffffffffffffffffffff8203610f0757610f06610e9b565b5b600182019050919050565b7f4e487b7100000000000000000000000000000000000000000000000000000000600052602260045260246000fd5b60006002820490506001821680610f5957607f821691505b602082108103610f6c57610f6b610f12565b5b50919050565b6000610f7d82610b05565b915060008203610f9057610f8f610e9b565b5b600182039050919050565b6000610fa682610b05565b9150610fb183610b05565b9250817fffffffffffffffffffffffffffffffffffffffffffffffffffffffffffffffff0483118215151615610fea57610fe9610e9b565b5b828202905092915050565b7f4e487b7100000000000000000000000000000000000000000000000000000000600052601260045260246000fd5b600061102f82610b05565b915061103a83610b05565b92508261104a57611049610ff5565b5b82820490509291505056fea264697066735822122056ef689cca7637d110a4a7d4248f9a1be439fb75254ed243c0613007558d9d8c64736f6c634300080d0033",
  "immutableReferences": {},
  "source": "// SPDX-License-Identifier: UNLICENSED\npragma solidity 0.8.13;\n/**\n * @title \n * @dev    .\n */\ncontract Voting {\n    //    \n    struct Candidate {\n        uint id; // ID \n        string name; //  \n        uint voteCount; //    \n    }\n\n    address public owner; //  \n    mapping(uint => Candidate) public candidates; //   ID    \n    uint public candidatesCount; //   \n\n    mapping(address => bool) private voters; //   ,    \n    uint public votesCount = 0; //    \n\n    bool electionsEnd = false; // , ,   \n\n    //        \n    modifier restricted() {\n        require(msg.sender == owner);\n        _;\n    }\n\n    modifier anyVotes() {\n        require(votesCount > 0);\n        _;\n    }\n\n    /**\n     * @dev ,  .\n     */\n    constructor () {\n        owner = msg.sender;\n        addCandidate(\"John Wick\");\n        addCandidate(\"Neo\");\n        addCandidate(\"Keanu Reeves\");\n    }\n\n    /**\n     * @dev     .\n     * @return   .\n     */\n    function getOwner() public view returns (address) {\n        return owner;\n    }\n\n    /**\n     * @dev      .\n     * @return   .\n     */\n    function getCandidatesCount() public view returns (uint) {\n        return candidatesCount;\n    }\n\n    /**\n     * @dev       .\n     * @return    .\n     */\n    function getVotesCount() public view returns (uint) {\n        return votesCount;\n    }\n\n    /**\n     * @dev   ,   .\n     * @return  , ,   .\n     */\n    function getElectionsEnd() public view returns (bool) {\n        return electionsEnd;\n    }\n\n    /**\n     * @dev     .\n     * @param _name  .\n     */\n    function addCandidate (string memory _name) public restricted {\n        candidatesCount ++;\n        candidates[candidatesCount] = Candidate(candidatesCount, _name, 0);\n    }\n\n    /**\n    * @dev       ID.\n    * @param _id ID .\n    * @return  .\n    */\n    function getCandidate (uint _id) public view returns (string memory)\n    {\n        return candidates[_id].name;\n    }\n\n    /**\n     * @dev     .\n     * @param _candidateId ID ,   .\n     */\n    function vote (uint _candidateId) public {\n        require(!voters[msg.sender]);\n        require(_candidateId > 0 && _candidateId <= candidatesCount);\n        voters[msg.sender] = true;\n        candidates[_candidateId].voteCount ++;\n        votesCount ++;\n    }\n\n    function hasVoted() public view returns (bool) {\n        return voters[msg.sender];\n    }\n\n    /**\n     * @dev     .\n     */\n    function startSecondTour() public restricted anyVotes {\n        uint minVotesId = 1;\n        uint minPercentage = 100;\n        for (uint i = 1; i <= candidatesCount; i++)\n        {\n            uint percentage = getPercentage(i);\n            if (percentage < minPercentage)\n            {\n                minPercentage = percentage;\n                minVotesId = i;\n            }\n        }\n        delete candidates[minVotesId];\n        candidatesCount--;\n    }\n\n    /**\n     * @dev    .\n     */\n    function endElections() public restricted anyVotes {\n        electionsEnd = true;\n    }\n\n    /**\n     * @dev     .\n     * @return   .\n     */\n    function getWinner() public view returns (string memory) {\n        require(electionsEnd);\n        uint maxVotes = 0;\n        uint winnerId = 0;\n        for (uint i = 1; i <= candidatesCount; i++) {\n            if (candidates[i].voteCount > maxVotes) {\n                maxVotes = candidates[i].voteCount;\n                winnerId = i;\n            }\n        }\n        return candidates[winnerId].name;\n    }\n\n    /**\n     * @dev       \n     * @param _candidateId ID \n     * @return    \n     */\n    function getPercentage(uint _candidateId) public view returns (uint) {\n        require(_candidateId > 0 && _candidateId <= candidatesCount);\n        return candidates[_candidateId].voteCount * 100 / votesCount;\n    }\n}",
  "sourcePath": "/Users/milord/WebstormProjects/Elections/contracts/elections.sol",
  "compiler": {
    "name": "solc",
    "version": "0.8.13+commit.abaa5c0e.Emscripten.clang"
  },
  "schemaVersion": "3.4.16",
  "updatedAt": "2024-05-20T08:43:37.160Z",
  "devdoc": {
    "details": "   .",
    "kind": "dev",
    "methods": {
      "addCandidate(string)": {
        "details": "    .",
        "params": {
          "_name": " ."
        }
      },
      "constructor": {
        "details": ",  ."
      },
      "endElections()": {
        "details": "   ."
      },
      "getCandidate(uint256)": {
        "details": "      ID.",
        "params": {
          "_id": "ID ."
        },
        "returns": {
          "_0": " ."
        }
      },
      "getCandidatesCount()": {
        "details": "     .",
        "returns": {
          "_0": "  ."
        }
      },
      "getElectionsEnd()": {
        "details": "  ,   .",
        "returns": {
          "_0": " , ,   ."
        }
      },
      "getOwner()": {
        "details": "    .",
        "returns": {
          "_0": "  ."
        }
      },
      "getPercentage(uint256)": {
        "details": "      ",
        "params": {
          "_candidateId": "ID "
        },
        "returns": {
          "_0": "   "
        }
      },
      "getVotesCount()": {
        "details": "      .",
        "returns": {
          "_0": "   ."
        }
      },
      "getWinner()": {
        "details": "    .",
        "returns": {
          "_0": "  ."
        }
      },
      "startSecondTour()": {
        "details": "    ."
      },
      "vote(uint256)": {
        "details": "    .",
        "params": {
          "_candidateId": "ID ,   ."
        }
      }
    },
    "title": "",
    "version": 1
  },
  "userdoc": {
    "kind": "user",
    "methods": {},
    "version": 1
  }
}